:020000040800F2
:1000000000500020D90D0008FD0C0008050D000867
:100010000D0D0008150D00081D0D00080000000062
:1000200000000000000000000000000071670008F0
:10003000250D00080000000051690008310D00087E
:10004000210E0008210E0008210E0008210E0008D4
:10005000210E0008210E0008210E0008210E0008C4
:10006000210E0008210E0008210E0008210E0008B4
:10007000210E0008210E0008210E0008210E0008A4
:10008000210E0008210E0008210E0008210E000894
:10009000210E0008210E0008210E0008210E000884
:1000A000210E0008210E0008210E0008210E000874
:1000B000210E0008210E0008210E0008210E000864
:1000C000210E0008210E0008210E0008210E000854
:1000D000210E00084D0D0008210E0008210E000819
:1000E000210E0008210E0008210E0008000000006B
:1000F0000000000000000000000000000000000000
:0C01000000000000000000005FF808F1A3
:1001100010B5054C237833B9044B13B10448AFF341
:1001200000800123237010BD60000020000000004B
:100130005881000808B5034B1BB103490348AFF3CE
:10014000008008BD00000000640000205881000805
:10015000034613F8012B002AFBD1181A0138704707
:100160000FB480B582B000AF07F114037B607B68E9
:100170003A6980210A4806F0DBFE0948FFF7E8FFEC
:1001800003469AB24FF47A730549064802F094FA8E
:1001900000BF0837BD46BDE8804004B0704700BFCF
:1001A0003C1600200C01002090B585B000AF00F097
:1001B00039FE00F0B3F800F0F5F900F0F5F800F0C2
:1001C0006DF900F0C5F9404C38465A2300223F49EA
:1001D00000F0B0FB3B4693E8070084E807003A4C88
:1001E00038465A230422394900F0A4FB04F10C03D9
:1001F0003A4607CA83E80700334C38465A23082298
:10020000324900F097FB04F118033A4607CA83E825
:1002100007002D4C38465A230C222C4900F08AFB4B
:1002200004F124033A4607CA83E80700264C3846FF
:100230005A230022264900F07DFB04F130033A46A0
:1002400007CA83E807007F222249234802F0BFFA49
:1002500003F0AEF8214803F0A0F90346204A1360EA
:10026000204A0021012003F0A6FA03461E4A13602B
:100270001E4A0121012003F09EFA03461C4A136026
:1002800000220221102003F0B5FB0346194A136037
:10029000194A0021194803F0D3F80346184A13609D
:1002A000184A0021184803F0CBF80346174A136098
:1002B000174A0021174803F0C3F80346164A136093
:1002C00003F098F800BFFDE7741500207C000020C3
:1002D000C4000020BC1500200C010020788200081A
:1002E0007414002088820008C81400209882000836
:1002F0001C150020701500200C820008C90600089B
:10030000540100203082000831070008B4090020A1
:100310005482000831080008140C002080B590B009
:1003200000AF07F1180328220021184606F00EFE40
:100330003B1D00221A605A609A60DA601A6101233C
:10034000BB614FF48033FB6100233B620123BB623E
:1003500002237B634FF48033BB634FF4E013FB63F2
:1003600007F11803184601F01BF90346002B01D0D2
:1003700000F0DAFA0F237B600223BB600023FB60EE
:100380004FF480633B6100237B613B1D02211846D3
:1003900001F088FB0346002B01D000F0C5FA00BF36
:1003A0004037BD4680BD000080B58AB000AF07F180
:1003B000200300221A605A603B1D00221A605A6016
:1003C0009A60DA601A615A619A61334B4FF0804249
:1003D0001A60314B47225A602F4B00229A602E4BF5
:1003E00044F61F62DA602C4B00221A612A4B00226D
:1003F0009A61294801F0E4FC0346002B01D000F08B
:1004000093FA00233B6200237B6207F12003194625
:10041000214802F0A3F80346002B01D000F084FA33
:1004200060237B600023BB600023FB6000237B61B3
:100430003B1D00221946184801F0B4FD0346002B6D
:1004400001D000F071FA3B1D04221946124801F058
:10045000A9FD0346002B01D000F066FA3B1D0822DF
:1004600019460D4801F09EFD0346002B01D000F017
:100470005BFA3B1D0C221946074801F093FD034629
:10048000002B01D000F050FA034800F093FB00BFAE
:100490002837BD4680BD00BF7C00002080B58AB0F3
:1004A00000AF07F1200300221A605A603B1D0022B2
:1004B0001A605A609A60DA601A615A619A61224B36
:1004C000224A1A60204B47225A601F4B00229A6032
:1004D0001D4B44F61F62DA601B4B00221A611A4B57
:1004E00000229A61184801F06BFC0346002B01D0F2
:1004F00000F01AFA00233B6200237B6207F120031D
:100500001946114802F02AF80346002B01D000F0EA
:100510000BFA60237B600023BB600023FB60002399
:100520007B613B1D00221946074801F03BFD034655
:10053000002B01D000F0F8F9034800F03BFB00BFAE
:100540002837BD4680BD00BFC40000200004004025
:1005500080B500AF114B124A1A60104B4FF4E132D4
:100560005A600E4B00229A600C4B0022DA600B4B53
:1005700000221A61094B0C225A61084B00229A6131
:10058000064B0022DA61054802F046F80346002BCC
:1005900001D000F0C9F900BF80BD00BF0C010020F0
:1005A0000038014080B588B000AF07F11003002289
:1005B0001A605A609A60DA601E4B9B691D4A43F0CC
:1005C000100393611B4B9B6903F01003FB60FB68F6
:1005D000184B9B69174A43F020039361154B9B69A5
:1005E00003F02003BB60BB68124B9B69114A43F0C8
:1005F000040393610F4B9B6903F004037B607B68EA
:1006000000224FF400510C4800F0B2FF4FF40053A9
:100610003B6101237B610023BB610223FB6107F186
:1006200010031946044800F01FFE00BF2037BD46E6
:1006300080BD00BF001002400010014080B582B0B4
:1006400000AF78600B467B807B681B680D4A934245
:1006500014D17B880C4A0021D1547B8801331A467F
:1006600009490A4806F0A6FC7F220749084802F01B
:10067000AEF8084B1B68184603F078F900BF08373E
:10068000BD4680BD00380140BC150020BC160020CE
:100690000C0100201C15002080B582B000AF7860EE
:1006A0007B681B68054A934204D17F2204490548B0
:1006B00002F08DF800BF0837BD4680BD003801400C
:1006C000BC1500200C01002080B586B000AF78601A
:1006D00000237B6100233B61114B1B684FF0FF310E
:1006E000184603F0F1F807F1100307F114020D4961
:1006F0000D4806F0C1FB0346022B0DD17B69DBB22E
:100700003B733B69DBB27B73084B186807F10C0144
:100710000023002203F0E2F9012002F023FFDBE7CF
:100720001C150020BC810008BC160020701500209C
:1007300080B584B000AF7860394B1B684FF0FF3153
:10074000184602F0B0FF12E03B7A042B0FD87B7AF8
:100750003A7A1146B42B28BFB423D8B2314A0B469B
:100760005B000B449B001344093302461A702E4B66
:10077000186807F108010023002203F00FFA03466E
:10078000002BE1D00023FB730023BB7333E0BA7B63
:1007900013465B0013449B00224A1344184600F0A2
:1007A0008AF903467B73BA7B13465B0013449B00B4
:1007B0001C4A9818BA7B1B4913465B0013449B00E4
:1007C0000B4409331B780122194600F021F9BA7B4A
:1007D00013465B0013449B00124A1344184600F072
:1007E0006AF903461A467B7B934201D00123FB73CF
:1007F000BB7B0133BB73BB7B042BC8D9084B1B6885
:10080000184602F09BFFFB7B002B04D0074B1B68B4
:10081000184603F0ABF80A2002F0A4FE8CE700BFF4
:10082000741400207415002070150020C8140020D6
:100830002DE9F0418CB008AF7860364B1B684FF063
:10084000FF31184603F040F8334B1B684FF0FF317F
:10085000184602F028FF0023FB7324E0FA7B1346BE
:100860005B0013449B002D4A1344FC7B184600F0A8
:1008700022F903461A462A4B03F81420FA7B134642
:100880005B0013449B00254A1344FC7B184600F090
:100890001DF903461946224A630013440A465A705A
:1008A000FB7B0133FB73FB7B042BD7D91A4B1B68F3
:1008B000184602F043FF1A4B1B789C46184B5B7896
:1008C0009E46174B9B789846154BDB781A46144B7F
:1008D0001B791946124B5B791846114B9B791C46C4
:1008E0000F4BDB791D460E4B1B7A1E460C4B5B7A79
:1008F0000693059604950394029001910092434655
:10090000724661460748FFF72BFC012002F02AFEE1
:1009100093E700BFC8140020741400207415002051
:10092000B0150020C881000880B400AF72B600BFC7
:1009300000BFFDE790B589B000AFF860B9607A609C
:10094000FB70BB687B617B68BB61FB783B77FB78A6
:100950007B777968B86801F083FAFA7807F11403B5
:100960001146184600F00CF8FB681C4607F114030A
:1009700093E8070084E80700F8682437BD4690BD77
:1009800080B485B000AF78600B46FB70FB78B42B69
:1009900001D9B423FB707B68FA781A727B681B7AE2
:1009A0001A464FF4FA6302FB03F39B08174AA2FBB3
:1009B00003239B0803F5FA73FB607B685B68002BDD
:1009C00005D17B681B681B68FA685A6318E07B686E
:1009D0005B68042B05D17B681B681A68FB6893630E
:1009E0000EE07B685B68082B05D17B681B681A6882
:1009F000FB68D36304E07B681B681A68FB681364B8
:100A000000BF1437BD4680BC704700BF176CC116CD
:100A100080B582B000AF78600B46FB701346BB70A8
:100A2000FB78B42B01D9B423FB707B68FA785A7237
:100A30007B681A7A7B685B7A9A4219D27B685B7A08
:100A40001A467B681B7AD21ABB789A4206DC7B680E
:100A50005B7A19467868FFF793FF28E07B681A7A7B
:100A6000BB781344DBB219467868FFF789FF1EE0B4
:100A70007B681A7A7B685B7A9A4218D97B681B7A02
:100A80001A467B685B7AD21ABB789A4206DC7B688E
:100A90005B7A19467868FFF773FF08E07B681A7A7B
:100AA000BB78D31ADBB219467868FFF769FF00BF3D
:100AB0000837BD4680BD80B483B000AF78607B68E6
:100AC0001B7A18460C37BD4680BC704780B483B093
:100AD00000AF78607B685B7A18460C37BD4680BCF7
:100AE0007047000080B584B000AF184B9B69174A6F
:100AF00043F001039361154B9B6903F00103BB6055
:100B0000BB68124BDB69114A43F08053D3610F4B32
:100B1000DB6903F080537B607B6800220F216FF05C
:100B2000010000F0B8FA0A4B5B68FB60FB6823F039
:100B3000E063FB60FB6843F08063FB60044AFB6892
:100B4000536000BF1037BD4680BD00BF001002409B
:100B50000000014080B485B000AF78607B681B68FE
:100B6000B3F1804F0CD1114BDB69104A43F0010304
:100B7000D3610E4BDB6903F00103FB60FB6810E0FF
:100B80007B681B680A4A93420BD1084BDB69074A12
:100B900043F00203D361054BDB6903F00203BB6042
:100BA000BB6800BF1437BD4680BC704700100240D0
:100BB0000004004080B588B000AF786007F11003F2
:100BC00000221A605A609A60DA607B681B68B3F191
:100BD000804F18D11C4B9B691B4A43F0040393615F
:100BE000194B9B6903F00403FB60FB680F233B6117
:100BF00002237B610223FB6107F1100319461348AE
:100C000000F032FB1CE07B681B68114A934217D14D
:100C10000D4B9B690C4A43F0040393610A4B9B699B
:100C200003F00403BB60BB6840233B6102237B618C
:100C30000223FB6107F110031946044800F014FB7E
:100C400000BF2037BD4680BD0010024000080140B3
:100C50000004004080B588B000AF786007F1100351
:100C600000221A605A609A60DA607B681B68204A2A
:100C7000934239D11F4B9B691E4A43F480439361D1
:100C80001C4B9B6903F48043FB60FB68194B9B6919
:100C9000184A43F004039361164B9B6903F0040365
:100CA000BB60BB684FF400733B6102237B6103238D
:100CB000FB6107F1100319460F4800F0D5FA4FF415
:100CC00080633B6100237B610023BB6107F110035C
:100CD0001946094800F0C8FA00220521252000F035
:100CE000DAF9252000F0F3F900BF2037BD4680BDBA
:100CF00000380140001002400008014080B400AFFD
:100D000000BFFDE780B400AF00BFFDE780B400AFD7
:100D100000BFFDE780B400AF00BFFDE780B400AFC7
:100D200000BFFDE780B400AF00BFBD4680BC704788
:100D300080B500AF00F0BCF804F088FF0346012B3B
:100D400001D005F029FE00BF80BD000080B500AFD6
:100D5000024801F099FD00BF80BD00BF0C010020DA
:100D600080B586B000AF7860144A154BD31A7B610A
:100D70007B693B61134B1B68002B02D1114B124A5C
:100D80001A60104B1A687B6813443A699A4207D27A
:100D900006F0E4F803460C221A604FF0FF3309E036
:100DA000084B1B68FB60074B1A687B681344054AB5
:100DB0001360FB6818461837BD4680BD0050002000
:100DC000000400003C170020E031002080B400AF98
:100DD00000BFBD4680BC7047FFF7F8FF0B480C49C9
:100DE0000C4A002302E0D458C4500433C4188C4287
:100DF000F9D3094A094C002301E013600432A242EE
:100E0000FBD306F0B1F8FFF7CFF9704700000020E0
:100E1000600000203484000860000020DC310020E5
:100E2000FEE7000080B500AF084B1B68074A43F09F
:100E300010031360032000F023F90F2000F008F8DE
:100E4000FFF750FE0023184680BD00BF002002407F
:100E500080B582B000AF7860124B1A68124B1B78D5
:100E600019464FF47A73B3FBF1F3B2FBF3F3184670
:100E700000F03BF90346002B01D001230EE07B6814
:100E80000F2B0AD8002279684FF0FF3000F003F9E9
:100E9000064A7B681360002300E0012318460837E8
:100EA000BD4680BD00000020080000200400002096
:100EB00080B400AF054B1B781A46054B1B681344E2
:100EC000034A136000BFBD4680BC70470800002085
:100ED0004017002080B400AF024B1B681846BD4687
:100EE00080BC70474017002080B485B000AF7860A8
:100EF0007B6803F00703FB600C4BDB68BB60BA68E0
:100F00004FF6FF031340BB60FB681A02BB68134334
:100F100043F0BF6343F40033BB60044ABB68D36053
:100F200000BF1437BD4680BC704700BF00ED00E035
:100F300080B400AF044BDB681B0A03F007031846BC
:100F4000BD4680BC704700BF00ED00E080B483B0B8
:100F500000AF0346FB7197F90730002B0BDBFB79E1
:100F600003F01F02064997F907305B09012000FAD8
:100F700002F241F8232000BF0C37BD4680BC704709
:100F800000E100E080B483B000AF03463960FB713C
:100F900097F90730002B0ADB3B68DAB20C4997F966
:100FA00007301201D2B20B4483F800230AE03B68F9
:100FB000DAB20849FB7903F00F03043B1201D2B205
:100FC0000B441A7600BF0C37BD4680BC704700BF8B
:100FD00000E100E000ED00E080B489B000AFF8600F
:100FE000B9607A60FB6803F00703FB61FB69C3F13A
:100FF0000703042B28BF0423BB61FB690433062BC2
:1010000002D9FB69033B00E000237B614FF0FF3214
:10101000BB6902FA03F3DA43BB681A407B699A4062
:101020004FF0FF317B6901FA03F3D9437B680B4032
:10103000134318462437BD4680BC704780B582B044
:1010400000AF78607B68013BB3F1807F01D301235F
:101050000FE00A4A7B68013B53600F214FF0FF30DD
:10106000FFF790FF054B00229A60044B07221A609D
:10107000002318460837BD4680BD00BF10E000E0E1
:1010800080B582B000AF78607868FFF72DFF00BFB1
:101090000837BD4680BD80B586B000AF0346B96055
:1010A0007A60FB7300237B61FFF742FF78617A6807
:1010B000B9687869FFF790FF024697F90F3011463B
:1010C0001846FFF75FFF00BF1837BD4680BD80B5EB
:1010D00082B000AF0346FB7197F907301846FFF75F
:1010E00035FF00BF0837BD4680BD80B582B000AF78
:1010F00078607868FFF7A2FF034618460837BD46B8
:1011000080BD80B485B000AF78600023FB737B683E
:1011100093F82130DBB2022B08D07B6804229A635B
:101120007B68002283F82020012320E07B681B6875
:101130001A687B681B6822F00E021A607B681B68C5
:101140001A687B681B6822F001021A607B681A6CBF
:101150007B68DB6B012101FA02F25A607B68012295
:1011600083F821207B68002283F82020FB7B18462F
:101170001437BD4680BC704780B584B000AF78603E
:101180000023FB737B6893F82130DBB2022B05D080
:101190007B6804229A630123FB7351E07B681B6820
:1011A0001A687B681B6822F00E021A607B681B6855
:1011B0001A687B681B6822F001021A607B681B6852
:1011C000224A934229D07B681B68214A934222D04D
:1011D0007B681B681F4A93421AD07B681B681E4AB3
:1011E000934212D07B681B681C4A93420AD07B68EA
:1011F0001B681B4A934202D14FF480130EE04FF05C
:1012000080730BE04FF4803308E04FF4805305E027
:101210004FF4807302E0102300E00123114A536071
:101220007B68012283F821207B68002283F820203C
:101230007B685B6B002B03D07B685B6B786898479F
:10124000FB7B18461037BD4680BD00BF080002403A
:101250001C0002403000024044000240580002409E
:101260006C0002400000024080B48BB000AF786098
:10127000396000237B6200233B6269E101227B6AC3
:1012800002FA03F3FB613B681B68FA691340BB6118
:10129000BA69FB699A4240F058813B685B689A4A98
:1012A00093425ED0984A934275D8984A934258D058
:1012B000964A93426FD8964A934252D0944A9342A8
:1012C00069D8944A93424CD0924A934263D8924A46
:1012D000934246D0904A93425DD8122B2AD8122BC3
:1012E00059D801A252F823F0631300083D130008F7
:1012F0004F13000891130008971300089713000874
:101300009713000897130008971300089713000815
:101310009713000897130008971300089713000805
:101320009713000897130008971300084513000847
:1013300059130008794A934213D02CE03B68DB68CC
:101340003B6229E03B68DB6804333B6224E03B6896
:10135000DB6808333B621FE03B68DB680C333B62B1
:101360001AE03B689B68002B02D104233B6213E028
:101370003B689B68012B05D108233B627B68FA69B7
:101380001A6109E008233B627B68FA695A6103E04D
:1013900000233B6200E000BFBB69FF2B01D87B68E4
:1013A00001E07B6804337B61BB69FF2B02D87B6A59
:1013B0009B0002E07B6A083B9B003B617B691A68EB
:1013C0000F213B6901FA03F3DB431A40396A3B6999
:1013D00001FA03F31A437B691A603B685B6803F008
:1013E0008053002B00F0B1804D4B9B694C4A43F079
:1013F000010393614A4B9B6903F00103BB60BB6827
:10140000484A7B6A9B08023352F82330FB607B6AB0
:1014100003F003039B000F2202FA03F3DB43FA6895
:101420001340FB607B68404A934213D07B683F4A7D
:1014300093420DD07B683E4A934207D07B683D4A79
:10144000934201D1032306E0042304E0022302E0D7
:10145000012300E000237A6A02F003029200934025
:10146000FA681343FB602F497B6A9B080233FA68D2
:1014700041F823203B685B6803F48013002B06D0FF
:101480002D4B9A682C49BB6913438B6006E02A4BAD
:101490009A68BB69DB43284913408B603B685B68F3
:1014A00003F40013002B06D0234BDA682249BB69F2
:1014B0001343CB6006E0204BDA68BB69DB431E496F
:1014C0001340CB603B685B6803F40033002B06D00D
:1014D000194B5A681849BB6913434B6006E0164B19
:1014E0005A68BB69DB43144913404B603B685B6837
:1014F00003F48033002B21D00F4B1A680E49BB69CF
:1015000013430B6021E000BF0000321000003110D7
:101510000000221000002110000012100000111025
:10152000001002400000014000080140000C014092
:101530000010014000140140000401400B4B1A68E8
:10154000BB69DB43094913400B607B6A01337B6253
:101550003B681A687B6A22FA03F3002B7FF48EAE95
:1015600000BF00BF2C37BD4680BC7047000401405F
:1015700080B483B000AF78600B467B8013467B70ED
:101580007B78002B03D07A887B681A6103E07B8824
:101590001A047B681A6100BF0C37BD4680BC7047D7
:1015A00080B586B000AF78607B68002B01D1012345
:1015B00072E27B681B6803F00103002B00F0878058
:1015C000924B5B6803F00C03042B0CD08F4B5B68D1
:1015D00003F00C03082B12D18C4B5B6803F48033AF
:1015E000B3F5803F0BD1894B1B6803F40033002B0C
:1015F0006CD07B685B68002B68D101234CE27B6870
:101600005B68B3F5803F06D1804B1B687F4A43F48B
:10161000803313602EE07B685B68002B0CD17B4B22
:101620001B687A4A23F480331360784B1B68774A2F
:1016300023F4802313601DE07B685B68B3F5A02F63
:101640000CD1724B1B68714A43F4802313606F4BBB
:101650001B686E4A43F4803313600BE06B4B1B68CE
:101660006A4A23F480331360684B1B68674A23F48B
:10167000802313607B685B68002B13D0FFF72AFC84
:10168000386108E0FFF726FC02463B69D31A642B59
:1016900001D9032300E25D4B1B6803F40033002BE8
:1016A000F0D014E0FFF716FC386108E0FFF712FCF9
:1016B00002463B69D31A642B01D90323ECE1534B57
:1016C0001B6803F40033002BF0D100E000BF7B68FF
:1016D0001B6803F00203002B63D04C4B5B6803F0E4
:1016E0000C03002B0BD0494B5B6803F00C03082B59
:1016F0001CD1464B5B6803F48033002B16D1434B5F
:101700001B6803F00203002B05D07B681B69012BCB
:1017100001D00123C0E13D4B1B6823F0F8027B6838
:101720005B69DB00394913430B603AE07B681B6956
:10173000002B20D0364B01221A60FFF7CBFB38611B
:1017400008E0FFF7C7FB02463B69D31A022B01D919
:101750000323A1E12D4B1B6803F00203002BF0D003
:101760002A4B1B6823F0F8027B685B69DB00274982
:1017700013430B6015E0264B00221A60FFF7AAFB0B
:10178000386108E0FFF7A6FB02463B69D31A022B3B
:1017900001D9032380E11D4B1B6803F00203002BDA
:1017A000F0D17B681B6803F00803002B3AD07B68FC
:1017B0009B69002B19D0174B01221A60FFF78AFB97
:1017C000386108E0FFF786FB02463B69D31A022B1B
:1017D00001D9032360E10D4B5B6A03F00203002B88
:1017E000F0D0012000F0CEFA1CE00A4B00221A6073
:1017F000FFF770FB38610FE0FFF76CFB02463B69B7
:10180000D31A022B08D9032346E100BF001002407F
:101810000000424280044242924B5B6A03F00203A2
:10182000002BE9D17B681B6803F00403002B00F058
:10183000A6800023FB758B4BDB6903F08053002BE4
:101840000DD1884BDB69874A43F08053D361854BC8
:10185000DB6903F08053BB60BB680123FB75824BDF
:101860001B6803F48073002B18D17F4B1B687E4AE2
:1018700043F480731360FFF72DFB386108E0FFF736
:1018800029FB02463B69D31A642B01D9032303E1E8
:10189000754B1B6803F48073002BF0D07B68DB680A
:1018A000012B06D16F4B1B6A6E4A43F00103136292
:1018B0002DE07B68DB68002B0CD16A4B1B6A694A00
:1018C00023F001031362674B1B6A664A23F004038B
:1018D00013621CE07B68DB68052B0CD1614B1B6A33
:1018E000604A43F0040313625E4B1B6A5D4A43F097
:1018F000010313620BE05B4B1B6A5A4A23F001039E
:101900001362584B1B6A574A23F0040313627B6827
:10191000DB68002B15D0FFF7DDFA38610AE0FFF72E
:10192000D9FA02463B69D31A41F28832934201D96F
:101930000323B1E04B4B1B6A03F00203002BEED0F4
:1019400014E0FFF7C7FA38610AE0FFF7C3FA02466E
:101950003B69D31A41F28832934201D903239BE0B9
:10196000404B1B6A03F00203002BEED1FB7D012BE1
:1019700005D13C4BDB693B4A23F08053D3617B6844
:10198000DB69002B00F08780364B5B6803F00C03AB
:10199000082B61D07B68DB69022B46D1334B0022D8
:1019A0001A60FFF797FA386108E0FFF793FA0246EA
:1019B0003B69D31A022B01D903236DE0294B1B6825
:1019C00003F00073002BF0D17B681B6AB3F5803FF6
:1019D00008D1244B5B6823F400327B689B68214963
:1019E00013434B601F4B5B6823F474127B68196AC6
:1019F0007B685B6A0B431B4913434B601B4B012203
:101A00001A60FFF767FA386108E0FFF763FA0246E9
:101A10003B69D31A022B01D903233DE0114B1B680C
:101A200003F00073002BF0D035E0104B00221A6059
:101A3000FFF750FA386108E0FFF74CFA02463B69BD
:101A4000D31A022B01D9032326E0064B1B6803F0AF
:101A50000073002BF0D11EE07B68DB69012B07D1FE
:101A6000012319E000100240007000406000424273
:101A70000B4B5B68FB60FB6803F480327B681B6A7E
:101A80009A4206D1FB6803F470127B685B6A9A4243
:101A900001D0012300E0002318461837BD4680BD61
:101AA0000010024080B584B000AF786039607B6878
:101AB000002B01D10123D0E06A4B1B6803F0070320
:101AC0003A689A4210D9674B1B6823F007026549B0
:101AD0003B6813430B60634B1B6803F007033A68D2
:101AE0009A4201D00123B8E07B681B6803F002032F
:101AF000002B20D07B681B6803F00403002B05D06B
:101B0000594B5B68584A43F4E06353607B681B6839
:101B100003F00803002B05D0534B5B68524A43F493
:101B200060535360504B5B6823F0F0027B689B6806
:101B30004D4913434B607B681B6803F00103002B86
:101B400040D07B685B68012B07D1474B1B6803F4CF
:101B50000033002B15D101237FE07B685B68022BEB
:101B600007D1414B1B6803F00073002B09D10123FF
:101B700073E03D4B1B6803F00203002B01D10123EE
:101B80006BE0394B5B6823F003027B685B68364986
:101B900013434B60FFF79EF9F8600AE0FFF79AF9EC
:101BA0000246FB68D31A41F28832934201D90323DB
:101BB00053E02D4B5B6803F00C027B685B689B0075
:101BC0009A42EBD1274B1B6803F007033A689A420D
:101BD00010D2244B1B6823F0070222493B681343B1
:101BE0000B60204B1B6803F007033A689A4201D050
:101BF000012332E07B681B6803F00403002B08D04C
:101C0000194B5B6823F4E0627B68DB681649134379
:101C10004B607B681B6803F00803002B09D0124B54
:101C20005B6823F460527B681B69DB000E49134339
:101C30004B6000F021F802460B4B5B681B0903F078
:101C40000F030A49CB5C22FA03F3094A1360094BDC
:101C50001B681846FFF7FCF8002318461037BD46EE
:101C600080BD00BF0020024000100240A882000892
:101C7000000000200400002080B487B000AF0023E3
:101C8000FB600023BB6000237B6100237B6000239B
:101C90003B611E4B5B68FB60FB6803F00C03042B8D
:101CA00002D0082B03D027E0194B3B6127E0FB68EB
:101CB0009B0C03F00F03174AD35C7B60FB6803F4B3
:101CC0008033002B10D0114B5B685B0C03F00103D9
:101CD000114AD35CBB607B680D4A03FB02F2BB6810
:101CE000B2FBF3F37B6104E07B680C4A02FB03F375
:101CF0007B617B693B6102E0054B3B6100BF3B6957
:101D000018461C37BD4680BC704700BF001002401B
:101D100000127A00C0820008D082000800093D004D
:101D200080B400AF024B1B681846BD4680BC7047AC
:101D30000000002080B500AFFFF7F2FF0246054B20
:101D40005B681B0A03F007030349CB5C22FA03F329
:101D5000184680BD00100240B882000880B500AF70
:101D6000FFF7DEFF0246054B5B68DB0A03F0070363
:101D70000349CB5C22FA03F3184680BD00100240F1
:101D8000B882000880B485B000AF78600A4B1B6849
:101D90000A4AA2FB03235B0A7A6802FB03F3FB6097
:101DA00000BFFB685A1EFA60002BF9D100BF00BFCC
:101DB0001437BD4680BC704700000020D34D621030
:101DC00080B582B000AF78607B68002B01D1012321
:101DD00041E07B6893F83D30DBB2002B06D17B6895
:101DE000002283F83C207868FEF7B4FE7B6802226C
:101DF00083F83D207B681A687B68043319461046D7
:101E000000F092F97B68012283F846207B6801226A
:101E100083F83E207B68012283F83F207B68012203
:101E200083F840207B68012283F841207B680122EF
:101E300083F842207B68012283F843207B680122DB
:101E400083F844207B68012283F845207B680122C7
:101E500083F83D20002318460837BD4680BD0000AA
:101E600080B584B000AF786039603B68002B09D141
:101E70007B6893F83E30DBB2012B14BF01230023B3
:101E8000DBB222E03B68042B09D17B6893F83F303A
:101E9000DBB2012B14BF01230023DBB215E03B684A
:101EA000082B09D17B6893F84030DBB2012B14BFBB
:101EB00001230023DBB208E07B6893F84130DBB2FA
:101EC000012B14BF01230023DBB2002B01D001231F
:101ED0005EE03B68002B04D17B68022283F83E2041
:101EE00013E03B68042B04D17B68022283F83F2077
:101EF0000BE03B68082B04D17B68022283F840206A
:101F000003E07B68022283F841207B681B68012282
:101F10003968184600F0FEFA7B681B681E4A934237
:101F200007D17B681B685A6C7B681B6842F40042CF
:101F30005A647B681B68184A93420ED07B681B6802
:101F4000B3F1804F09D07B681B68144A934204D0D8
:101F50007B681B68124A934211D17B681B689B689F
:101F600003F00703FB60FB68062B10D07B681B683F
:101F70001A687B681B6842F001021A6007E07B6800
:101F80001B681A687B681B6842F001021A60002314
:101F900018461037BD4680BD002C014000040040AB
:101FA0000008004080B586B000AFF860B9607A6084
:101FB0000023FB75FB6893F83C30012B01D1022311
:101FC000AEE0FB68012283F83C207B680C2B00F21A
:101FD0009F8001A252F823F00D2000081121000873
:101FE00011210008112100084D20000811210008CE
:101FF00011210008112100088F200008112100087C
:102000001121000811210008CF200008FB681B687F
:10201000B968184600F0F6F8FB681B689A69FB6817
:102020001B6842F008029A61FB681B689A69FB68AA
:102030001B6822F004029A61FB681B689969BB68FF
:102040001A69FB681B680A439A6164E0FB681B68B5
:10205000B968184600F03CF9FB681B689A69FB6890
:102060001B6842F400629A61FB681B689A69FB680E
:102070001B6822F480629A61FB681B689969BB68DF
:102080001B691A02FB681B680A439A6143E0FB68FC
:102090001B68B968184600F085F9FB681B68DA69A7
:1020A000FB681B6842F00802DA61FB681B68DA69AA
:1020B000FB681B6822F00402DA61FB681B68D969BF
:1020C000BB681A69FB681B680A43DA6123E0FB6896
:1020D0001B68B968184600F0CFF9FB681B68DA691D
:1020E000FB681B6842F40062DA61FB681B68DA690E
:1020F000FB681B6822F48062DA61FB681B68D9699F
:10210000BB681B691A02FB681B680A43DA6102E0BC
:102110000123FB7500BFFB68002283F83C20FB7D98
:1021200018461837BD4680BD80B485B000AF7860D2
:1021300039607B681B68FB607B682F4A93420BD039
:102140007B68B3F1804F07D07B682C4A934203D061
:102150007B682B4A934208D1FB6823F07003FB6035
:102160003B685B68FA681343FB607B68224A9342D2
:102170000BD07B68B3F1804F07D07B681F4A934236
:1021800003D07B681E4A934208D1FB6823F4407356
:10219000FB603B68DB68FA681343FB60FB6823F075
:1021A00080023B685B691343FB607B68FA681A60D6
:1021B0003B689A687B68DA623B681A687B689A6257
:1021C0007B680D4A934203D13B681A697B681A63A6
:1021D0007B6801225A617B681B6903F00103002BB5
:1021E00005D07B681B6923F001027B681A6100BF80
:1021F0001437BD4680BC7047002C014000040040ED
:102200000008004080B487B000AF786039607B6818
:102210001B6A7B617B681B6A23F001027B681A6280
:102220007B685B683B617B689B69FB60FB6823F0B4
:102230007003FB60FB6823F00303FB603B681B68D3
:10224000FA681343FB607B6923F002037B613B6800
:102250009B687A6913437B617B681C4A93420CD16B
:102260007B6923F008037B613B68DB687A69134371
:102270007B617B6923F004037B617B68134A934293
:1022800011D13B6923F480733B613B6923F40073F4
:102290003B613B685B693A6913433B613B689B69FF
:1022A0003A6913433B617B683A695A607B68FA6814
:1022B0009A613B685A687B685A637B687A691A62DC
:1022C00000BF1C37BD4680BC704700BF002C0140DA
:1022D00080B487B000AF786039607B681B6A7B612F
:1022E0007B681B6A23F010027B681A627B685B685C
:1022F0003B617B689B69FB60FB6823F4E043FB6008
:10230000FB6823F44073FB603B681B681B02FA68A0
:102310001343FB607B6923F020037B613B689B6870
:102320001B017A6913437B617B681D4A93420DD17F
:102330007B6923F080037B613B68DB681B017A6962
:1023400013437B617B6923F040037B617B68144A04
:10235000934213D13B6923F480633B613B6923F4CF
:1023600000633B613B685B699B003A6913433B61D7
:102370003B689B699B003A6913433B617B683A6900
:102380005A607B68FA689A613B685A687B689A630E
:102390007B687A691A6200BF1C37BD4680BC7047F3
:1023A000002C014080B487B000AF786039607B6852
:1023B0001B6A7B617B681B6A23F480727B681A62EC
:1023C0007B685B683B617B68DB69FB60FB6823F0D3
:1023D0007003FB60FB6823F00303FB603B681B6832
:1023E000FA681343FB607B6923F400737B613B68ED
:1023F0009B681B027A6913437B617B681D4A934289
:102400000DD17B6923F400637B613B68DB681B02B1
:102410007A6913437B617B6923F480637B617B680A
:10242000144A934213D13B6923F480533B613B69C7
:1024300023F400533B613B685B691B013A6913431A
:102440003B613B689B691B013A6913433B617B68B5
:102450003A695A607B68FA68DA613B685A687B6857
:10246000DA637B687A691A6200BF1C37BD4680BC9C
:10247000704700BF002C014080B487B000AF786087
:1024800039607B681B6A3B617B681B6A23F480525E
:102490007B681A627B685B687B617B68DB69FB60D9
:1024A000FB6823F4E043FB60FB6823F44073FB60AC
:1024B0003B681B681B02FA681343FB603B6923F40B
:1024C00000533B613B689B681B033A6913433B61C4
:1024D0007B680F4A934209D17B6923F480437B6177
:1024E0003B685B699B017A6913437B617B687A690E
:1024F0005A607B68FA68DA613B685A687B681A64DC
:102500007B683A691A6200BF1C37BD4680BC7047C1
:10251000002C014080B487B000AFF860B9607A60E9
:10252000BB6803F01F03012202FA03F37B61FB681F
:102530001A6A7B69DB431A40FB681A62FB681A6AF5
:10254000BB6803F01F03796801FA03F31A43FB68C1
:102550001A6200BF1C37BD4680BC704780B485B08E
:1025600000AF786039607B6893F83C30012B01D173
:10257000022346E07B68012283F83C207B6802222C
:1025800083F83D207B681B685B68FB607B681B6889
:102590009B68BB60FB6823F07003FB603B681B68B3
:1025A000FA681343FB607B681B68FA685A607B68B3
:1025B0001B68164A93420ED07B681B68B3F1804FAC
:1025C00009D07B681B68124A934204D07B681B6861
:1025D000104A93420CD1BB6823F08003BB603B6878
:1025E0005B68BA681343BB607B681B68BA689A6013
:1025F0007B68012283F83D207B68002283F83C2021
:10260000002318461437BD4680BC7047002C01409B
:10261000000400400008004080B582B000AF786040
:102620007B68002B01D1012342E07B6893F84130A5
:10263000DBB2002B06D17B68002283F8402078684B
:10264000FEF708FB7B68242283F841207B681B6827
:10265000DA687B681B6822F40052DA60786800F060
:10266000E5FD7B681B681A697B681B6822F4904251
:102670001A617B681B685A697B681B6822F02A0212
:102680005A617B681B68DA687B681B6842F40052F9
:10269000DA607B6800225A647B68202283F841203C
:1026A0007B68202283F842207B6800225A63002343
:1026B00018460837BD4680BD80B58AB002AFF860C5
:1026C000B9603B601346FB8000237B61FB6893F895
:1026D0004130DBB2202B75D1BB68002B02D0FB88C8
:1026E000002B01D101236EE0FB6800225A64FB68D5
:1026F000212283F84120FEF7EDFB7861FB68FA8820
:102700009A84FB68FA88DA84FB689B68B3F5805F7B
:1027100008D1FB681B69002B04D10023FB61BB6857
:10272000BB6103E0BB68FB610023BB612EE03B683B
:1027300000937B6900228021F86800F049FB034682
:10274000002B05D0FB68202283F8412003233AE0C8
:10275000FB69002B0BD1BB691B881A46FB681B6801
:10276000C2F308025A60BB690233BB6107E0FB6930
:102770001A78FB681B685A60FB690133FB61FB68D0
:10278000DB8C9BB2013B9AB2FB68DA84FB68DB8C82
:102790009BB2002BCBD13B6800937B690022402188
:1027A000F86800F015FB0346002B05D0FB682022DB
:1027B00083F84120032306E0FB68202283F84120B0
:1027C000002300E0022318462037BD4680BD80B5B7
:1027D0008CB000AFF860B9601346FB80FB6893F8DB
:1027E0004230DBB2202B4AD1BB68002B02D0FB88E1
:1027F000002B01D1012343E0FB6801221A63FB682F
:1028000000225A63FB881A46B968F86800F039FB61
:10281000034687F82F3097F82F30002B2CD1FB6818
:102820001B6B012B25D100233B61FB681B681B68D8
:102830003B61FB681B685B683B613B69FB681B682D
:102840000C33BB61BB6953E8003F7B617B6943F09C
:102850001003BB62FB681B680C33BA6A7A623B6286
:10286000396A7A6A41E80023FB61FB69002BE5D1F4
:1028700002E0012387F82F3097F82F3000E0022381
:1028800018463037BD4680BD80B5BAB000AF78601D
:102890007B681B681B68C7F8E4307B681B68DB68D3
:1028A000C7F8E0307B681B685B69C7F8DC30002341
:1028B000C7F8D8300023C7F8D430D7F8E43003F095
:1028C0000F03C7F8D830D7F8D830002B0FD1D7F87E
:1028D000E43003F02003002B09D0D7F8E03003F0F8
:1028E0002003002B03D0786800F0E1FB5BE2D7F80F
:1028F000D830002B00F0DE80D7F8DC3003F0010385
:10290000002B06D1D7F8E03003F49073002B00F0D1
:10291000D180D7F8E43003F00103002B0BD0D7F8B7
:10292000E03003F48073002B05D07B685B6C43F0D0
:1029300001027B685A64D7F8E43003F00403002BEB
:102940000BD0D7F8DC3003F00103002B05D07B68F7
:102950005B6C43F002027B685A64D7F8E43003F002
:102960000203002B0BD0D7F8DC3003F00103002B5F
:1029700005D07B685B6C43F004027B685A64D7F82F
:10298000E43003F00803002B11D0D7F8E03003F057
:102990002003002B05D1D7F8DC3003F00103002B16
:1029A00005D07B685B6C43F008027B685A647B68E7
:1029B0005B6C002B00F0F281D7F8E43003F02003C9
:1029C000002B08D0D7F8E03003F02003002B02D012
:1029D000786800F06CFB7B681B685B6903F0400360
:1029E000002B14BF01230023DBB2C7F8D4307B686F
:1029F0005B6C03F00803002B03D1D7F8D430002B15
:102A00004FD0786800F076FA7B681B685B6903F04A
:102A10004003002B41D07B681B681433C7F89C30FF
:102A2000D7F89C3053E8003FC7F89830D7F8983073
:102A300023F04003C7F8D0307B681B681433D7F805
:102A4000D020C7F8A820C7F8A430D7F8A410D7F82A
:102A5000A82041E80023C7F8A030D7F8A030002B09
:102A6000D9D17B68DB6B002B13D07B68DB6B7E4A94
:102A70005A637B68DB6B1846FEF77EFB0346002B30
:102A800016D07B68DB6B5B6B7A68D26B104698471D
:102A90000EE07868FDF700FE0AE07868FDF7FCFDBF
:102AA00006E07868FDF7F8FD7B6800225A6475E15E
:102AB00000BF73E17B681B6B012B40F04F81D7F89F
:102AC000E43003F01003002B00F04881D7F8E03029
:102AD00003F01003002B00F041810023BB607B68F2
:102AE0001B681B68BB607B681B685B68BB60BB685E
:102AF0007B681B685B6903F04003002B00F0B68025
:102B00007B68DB6B1B685B68A7F8BE30B7F8BE302C
:102B1000002B00F045817B689B8DB7F8BE209A4260
:102B200080F03E817B68B7F8BE20DA857B68DB6B7E
:102B30009B69202B00F088807B681B680C33C7F8EA
:102B40008830D7F8883053E8003FC7F88430D7F88A
:102B5000843023F48073C7F8B8307B681B680C336B
:102B6000D7F8B820C7F89420C7F89030D7F890105D
:102B7000D7F8942041E80023C7F88C30D7F88C3080
:102B8000002BD9D17B681B6814337B677B6F53E8BC
:102B9000003F3B673B6F23F00103C7F8B4307B680D
:102BA0001B681433D7F8B420C7F88020FB67F96F8F
:102BB000D7F8802041E80023BB67BB6F002BE1D131
:102BC0007B681B6814333B663B6E53E8003FFB6534
:102BD000FB6D23F04003C7F8B0307B681B681433EB
:102BE000D7F8B020FA66BB66B96EFA6E41E80023EA
:102BF0007B667B6E002BE3D17B68202283F842202A
:102C00007B6800221A637B681B680C33FB64FB6CD7
:102C100053E8003FBB64BB6C23F01003C7F8AC3033
:102C20007B681B680C33D7F8AC20BA657B65796D7F
:102C3000BA6D41E800233B653B6D002BE3D17B6817
:102C4000DB6B1846FEF75DFA7B6802225A637B68ED
:102C50009A8D7B68DB8D9BB2D31A9BB2194678683C
:102C6000FDF7ECFC9CE000BFB92F00087B689A8D53
:102C70007B68DB8D9BB2D31AA7F8CE307B68DB8DE7
:102C80009BB2002B00F08E80B7F8CE30002B00F006
:102C900089807B681B680C33BB63BB6B53E8003FC8
:102CA0007B637B6B23F49073C7F8C8307B681B6829
:102CB0000C33D7F8C8207A643B64396C7A6C41E8ED
:102CC0000023FB63FB6B002BE3D17B681B68143391
:102CD0007B627B6A53E8003F3B623B6A23F001035F
:102CE000C7F8C4307B681B681433D7F8C4203A6334
:102CF000FB62F96A3A6B41E80023BB62BB6A002BB6
:102D0000E3D17B68202283F842207B6800221A638B
:102D10007B681B680C333B613B6953E8003FFB60F9
:102D2000FB6823F01003C7F8C0307B681B680C33C6
:102D3000D7F8C020FA61BB61B969FA6941E800239C
:102D40007B617B69002BE3D17B6802225A63B7F871
:102D5000CE3019467868FDF771FC23E0D7F8E430EF
:102D600003F08003002B09D0D7F8E03003F0800394
:102D7000002B03D0786800F033F914E0D7F8E43082
:102D800003F04003002B0ED0D7F8E03003F04003EF
:102D9000002B08D0786800F072F904E000BF02E070
:102DA00000BF00E000BFE837BD4680BD80B483B0FF
:102DB00000AF786000BF0C37BD4680BC704780B460
:102DC00083B000AF786000BF0C37BD4680BC704751
:102DD00080B586B000AFF860B9603B601346FB7108
:102DE0003BE03B6AB3F1FF3F37D0FEF773F8024692
:102DF0003B68D31A3A6A9A4202D33B6A002B01D14C
:102E000003233AE0FB681B68DB6803F00403002B34
:102E100023D0BB68802B20D0BB68402B1DD0FB6823
:102E20001B681B6803F00803082B16D100237B6185
:102E3000FB681B681B687B61FB681B685B687B61C8
:102E40007B69F86800F056F8FB6808225A64FB6852
:102E5000002283F8402001230FE0FB681B681A68FA
:102E6000BB681340BA689A420CBF01230023DBB24F
:102E70001A46FB799A42B4D0002318461837BD464B
:102E800080BD80B485B000AFF860B9601346FB80A8
:102E9000FB68BA689A62FB68FA889A85FB68FA88C8
:102EA000DA85FB6800225A64FB68222283F84220FC
:102EB000FB681B69002B07D0FB681B68DA68FB689E
:102EC0001B6842F48072DA60FB681B685A69FB6811
:102ED0001B6842F001025A61FB681B68DA68FB68F4
:102EE0001B6842F02002DA60002318461437BD4602
:102EF00080BC704780B495B000AF78607B681B6879
:102F00000C337B637B6B53E8003F3B633B6B23F4E9
:102F10009073FB647B681B680C33FA6C3A64FB6348
:102F2000F96B3A6C41E80023BB63BB6B002BE5D126
:102F30007B681B6814333B623B6A53E8003FFB61CC
:102F4000FB6923F00103BB647B681B681433BA6C14
:102F5000FA62BB62B96AFA6A41E800237B627B6A63
:102F6000002BE5D17B681B6B012B19D17B681B689B
:102F70000C33FB60FB6853E8003FBB60BB6823F089
:102F800010037B647B681B680C337A6CBA617B61CD
:102F90007969BA6941E800233B613B69002BE5D1BF
:102FA0007B68202283F842207B6800221A6300BFDE
:102FB0005437BD4680BC704780B584B000AF7860A0
:102FC0007B685B6AFB60FB680022DA85FB68002295
:102FD000DA84F868FDF760FB00BF1037BD4680BD9E
:102FE00080B485B000AF78607B6893F84130DBB285
:102FF000212B3ED17B689B68B3F5805F14D17B6841
:103000001B69002B10D17B681B6AFB60FB681B8867
:103010001A467B681B68C2F308025A607B681B6A09
:103020009A1C7B681A6208E07B681B6A591C7A68E4
:1030300011621A787B681B685A607B68DB8C9BB2D4
:10304000013B9BB27A681946D184002B0FD17B6873
:103050001B68DA687B681B6822F08002DA607B6894
:103060001B68DA687B681B6842F04002DA60002364
:1030700000E0022318461437BD4680BC704780B577
:1030800082B000AF78607B681B68DA687B681B6879
:1030900022F04002DA607B68202283F841207868C1
:1030A000FFF784FE002318460837BD4680BD80B573
:1030B0008CB000AF78607B6893F84230DBB2222B93
:1030C00040F0AE807B689B68B3F5805F17D17B686A
:1030D0001B69002B13D10023FB627B689B6ABB62D8
:1030E0007B681B685B689BB2C3F308039AB2BB6A38
:1030F0001A807B689B6A9A1C7B689A6226E07B68D0
:103100009B6AFB620023BB627B689B68B3F5805FB0
:1031100007D07B689B68002B0AD17B681B69002B5A
:1031200006D17B681B685B68DAB2FB6A1A7008E03C
:103130007B681B685B68DBB203F07F03DAB2FB6A73
:103140001A707B689B6A5A1C7B689A627B68DB8D6D
:103150009BB2013B9BB27A681946D185002B5DD1A9
:103160007B681B68DA687B681B6822F02002DA60E3
:103170007B681B68DA687B681B6822F48072DA60FF
:103180007B681B685A697B681B6822F001025A61E0
:103190007B68202283F842207B6800225A637B6888
:1031A0001B6B012B35D17B6800221A637B681B687F
:1031B0000C337B617B6953E8003F3B613B6923F043
:1031C00010037B627B681B680C337A6A3A62FB618E
:1031D000F9693A6A41E80023BB61BB69002BE5D17C
:1031E0007B681B681B6803F01003102B0AD10023B7
:1031F000FB607B681B681B68FB607B681B685B6807
:10320000FB60FB687B689B8D19467868FDF716FAB2
:1032100002E07868FFF7D3FD002302E0002300E01E
:10322000022318463037BD4680BD000080B584B00B
:1032300000AF78607B681B681B6923F440517B6892
:10324000DA687B681B680A431A617B689A687B6846
:103250001B691A437B685B691343BB607B681B680F
:10326000DB6823F4B05323F00C037A681268B96862
:103270000B43D3607B681B685B6923F440717B68F8
:103280009A697B681B680A435A617B681B682C4AF1
:10329000934203D1FEF762FDF86002E0FEF74AFDBB
:1032A000F860FA6813469B0013449A001A447B683E
:1032B0005B689B00B2FBF3F3224AA2FB03235B098A
:1032C0001901FA6813469B0013449A001A447B685C
:1032D0005B689B00B2FBF3F21A4BA3FB02035B0992
:1032E000642000FB03F3D31A1B013233154AA2FBFF
:1032F00003235B0903F0F0031944FA6813469B00AB
:1033000013449A001A447B685B689B00B2FBF3F29B
:103310000C4BA3FB02035B09642000FB03F3D31AED
:103320001B013233074AA2FB03235B0903F00F02A0
:103330007B681B680A449A6000BF1037BD4680BD99
:10334000003801401F85EB5180B483B000AF0346C5
:103350003960FB7197F90730002B0ADB3B68DAB262
:103360000C4997F907301201D2B20B4483F80023BD
:103370000AE03B68DAB20849FB7903F00F03043B2B
:103380001201D2B20B441A7600BF0C37BD4680BC86
:10339000704700BF00E100E000ED00E080B500AF45
:1033A00000216FF00400FFF7CFFF00BF80BD0000D9
:1033B00080B483B000AFEFF305833B603B68002B24
:1033C00003D06FF005037B600CE0094B1B68002BFA
:1033D00005D1074B01221A6000237B6002E04FF009
:1033E000FF337B607B6818460C37BD4680BC704756
:1033F0004417002080B582B000AFEFF305833B6037
:103400003B68002B03D06FF005037B6010E00B4B93
:103410001B68012B09D1FFF7C1FF084B02221A607C
:1034200001F0BAFF00237B6002E04FF0FF337B60C6
:103430007B6818460837BD4680BD00BF4417002092
:1034400080B58EB004AFF860B9607A6000233B614C
:10345000EFF305837B617B69002B7ED1FB68002B3A
:103460007BD080233B621823FB6100237B624FF0FB
:10347000FF33BB617B68002B45D07B681B68002B4A
:1034800002D07B681B687B627B689B69002B02D043
:103490007B689B69FB61FB69002B08D0FB69382BBB
:1034A00005D87B685B6803F00103002B01D0002383
:1034B00054E07B685B69002B03D07B685B699B08E9
:1034C0003B627B689B68002B0ED07B68DB685B2BC4
:1034D0000AD97B681B69002B06D07B685B69002BCF
:1034E00002D00123BB6110E07B689B68002B0CD1EC
:1034F0007B68DB68002B08D17B681B69002B04D13B
:103500000023BB6101E00023BB61BB69012B10D12B
:103510007B681B697A68926802920193FB69009349
:10352000BB683A6A796AF86801F05AFD03463B6164
:1035300013E0BB69002B10D13B6A9AB207F110036C
:103540000193FB690093BB68796AF86801F0A8FDF4
:103550000346012B01D000233B613B691846283705
:10356000BD4680BD80B584B000AF7860EFF30583C1
:10357000BB60BB68002B03D06FF00503FB6007E066
:103580000023FB607B68002B02D0786801F0CEFE40
:10359000FB6818461037BD4680BD80B588B000AFC7
:1035A00078600023FB61EFF30583BB60BB68002BF1
:1035B00074D17B68002B03D07B685B68BB6101E042
:1035C0000023BB61BB6903F00103002B02D0012380
:1035D0007B6101E000237B61BB6903F00803002BE2
:1035E0005CD14FF0FF333B617B68002B15D07B68CB
:1035F0009B68002B06D07B68DB684F2B02D9012328
:103600003B610CE07B689B68002B08D17B68DB6822
:10361000002B04D100233B6101E000233B613B69A7
:10362000012B12D17B69002B07D07B689B68194660
:10363000042000F06AFDF86116E07B689B6819467B
:10364000012000F062FDF8610EE03B69002B0BD118
:103650007B69002B04D0042000F03FFDF86103E0FB
:10366000012000F03AFDF861FB69002B0CD07B686B
:10367000002B03D07B681B68FB6001E00023FB602C
:10368000F968F86901F026FCFB69002B06D07B691C
:10369000002B03D0FB6943F00103FB61FB69184673
:1036A0002037BD4680BD80B586B000AF78603960F8
:1036B0007B6823F001033B617B6803F00103FB603F
:1036C00000237B61EFF30583BB60BB68002B03D055
:1036D0006FF005037B612CE03B69002B03D16FF099
:1036E00003037B6125E0FB68002B11D03968386942
:1036F00000F05BFD0346012B1BD03B68002B03D081
:103700006FF001037B6114E06FF002037B6110E056
:103710003968386901F000F90346012B09D03B688C
:10372000002B03D06FF001037B6102E06FF0020316
:103730007B617B6918461837BD4680BD80B586B071
:1037400000AF78607B6823F001033B617B6803F086
:103750000103FB6000237B61EFF30583BB60BB6863
:10376000002B03D06FF005037B611FE03B69002B4A
:1037700003D16FF003037B6118E0FB68002B09D0D5
:10378000386900F0DDFC0346012B0FD06FF0020317
:103790007B610BE0002300220021386900F0AAFDC4
:1037A0000346012B02D06FF002037B617B69184650
:1037B0001837BD4680BD80B58AB002AFF860B960E9
:1037C0007A600023FB61EFF305833B613B69002BCB
:1037D00075D1FB68002B72D0BA68FB689A426ED82C
:1037E0004FF0FF33BB617B68002B15D07B689B6873
:1037F000002B06D07B68DB684F2B02D90123BB610D
:103800000CE07B689B68002B08D17B68DB68002B91
:1038100004D10023BB6101E00023BB61BB69B3F1AC
:10382000FF3F4CD0FB68012B28D1BB69012B0AD18B
:103830007B689B680322009200220021012000F097
:1038400057FBF86105E003220021012000F0CDFBC9
:10385000F861FB69002B22D0BB68002B1FD000232E
:1038600000220021F86900F045FD0346012B16D027
:10387000F86901F0E3F90023FB6110E0BB69012B5B
:1038800008D17B689B681A46B968F86800F0C4FCE8
:10389000F86104E0B968F86800F0F7FCF861FB69CA
:1038A000002B0CD07B68002B03D07B681B687B61EE
:1038B00001E000237B617969F86901F00BFBFB698A
:1038C00018462037BD4680BD80B586B000AF786011
:1038D00039607B683B6100237B613B69002B03D12E
:1038E0006FF003037B6139E0EFF30583FB60FB6856
:1038F000002B22D03B68002B03D06FF003037B61C9
:103900002CE00023BB6007F108031A460021386948
:1039100001F012F90346012B03D06FF002037B6123
:103920001CE0BB68002B19D00F4B4FF080521A607F
:10393000BFF34F8FBFF36F8F10E03968386900F025
:10394000EBFF0346012B09D03B68002B03D06FF03F
:1039500001037B6102E06FF002037B617B69184623
:103960001837BD4680BD00BF04ED00E080B586B0CD
:1039700000AF78607B683B6100237B613B69002B73
:1039800003D16FF003037B612CE0EFF30583FB6051
:10399000FB68002B1AD00023BB6007F1080319460F
:1039A000386900F047FE0346012B03D06FF0020395
:1039B0007B6117E0BB68002B14D00D4B4FF0805299
:1039C0001A60BFF34F8FBFF36F8F0BE0002300220D
:1039D0000021386900F08EFC0346012B02D06FF005
:1039E00002037B617B6918461837BD4680BD00BF66
:1039F00004ED00E080B58AB002AFF860B9607A608B
:103A00000023FB61EFF305833B613B69002B5FD132
:103A1000FB68002B5CD0BB68002B59D04FF0FF3304
:103A2000BB617B68002B29D07B689B68002B12D080
:103A30007B68DB684F2B0ED97B681B69002B0AD093
:103A40007B685A69FB68B96801FB03F39A4202D3A9
:103A50000123BB6114E07B689B68002B10D17B685D
:103A6000DB68002B0CD17B681B69002B08D17B68BD
:103A70005B69002B04D10023BB6101E00023BB6123
:103A8000BB69012B0BD17B681A697B689B6800219D
:103A90000091B968F86800F02BFAF86108E0BB699A
:103AA000002B05D10022B968F86800F09EFAF86191
:103AB000FB69002B0CD07B68002B03D07B681B6854
:103AC0007B6101E000237B617969F86901F002FA0A
:103AD000FB6918462037BD4680BD000080B588B020
:103AE00000AFF860B9603B601346FB71FB68BB61D7
:103AF0000023FB61EFF305837B617B69002B28D0FA
:103B0000BB69002B05D0BB68002B02D03B68002BA3
:103B100003D06FF00303FB6138E000233B6107F142
:103B200010020023B968B86900F0E6FC0346012BD7
:103B300003D06FF00203FB6128E03B69002B25D026
:103B4000154B4FF080521A60BFF34F8FBFF36F8F4A
:103B50001CE0BB69002B02D0BB68002B03D16FF0C7
:103B60000303FB6112E000233A68B968B86900F00A
:103B7000C1FB0346012B09D03B68002B03D06FF03B
:103B80000103FB6102E06FF00203FB61FB69184671
:103B90002037BD4680BD00BF04ED00E080B588B091
:103BA00000AFF860B9607A603B60FB68BB610023DE
:103BB000FB61EFF305837B617B69002B28D0BB6938
:103BC000002B05D0BB68002B02D03B68002B03D034
:103BD0006FF00303FB6137E000233B6107F1100343
:103BE0001A46B968B86900F0A7FF0346012B03D055
:103BF0006FF00203FB6127E03B69002B24D0154BDB
:103C00004FF080521A60BFF34F8FBFF36F8F1BE0EE
:103C1000BB69002B02D0BB68002B03D16FF00303FC
:103C2000FB6111E03A68B968B86900F093FD03469A
:103C3000012B09D03B68002B03D06FF00103FB611F
:103C400002E06FF00203FB61FB6918462037BD46B6
:103C500080BD00BF04ED00E080B485B000AFF86027
:103C6000B9607A60FB68064A1A60BB68054A1A6048
:103C70007B6880221A6000BF1437BD4680BC704745
:103C800048170020A417002080B485B000AFF8606A
:103C9000B9607A60FB68074A1A60BB68064A1A6016
:103CA0007B684FF480721A6000BF1437BD4680BC39
:103CB000704700BFA4190020001A002080B483B010
:103CC00000AF78607B6803F108027B685A607B680C
:103CD0004FF0FF329A607B6803F108027B68DA607C
:103CE0007B6803F108027B681A617B6800221A6016
:103CF00000BF0C37BD4680BC704780B483B000AFB6
:103D000078607B6800221A6100BF0C37BD4680BC1A
:103D1000704780B485B000AF786039607B685B68BD
:103D2000FB603B68FA685A60FB689A683B689A6077
:103D3000FB689B683A685A60FB683A689A603B681F
:103D40007A681A617B681B685A1C7B681A6000BF1E
:103D50001437BD4680BC704780B485B000AF786032
:103D600039603B681B68BB60BB68B3F1FF3F03D1A0
:103D70007B681B69FB600CE07B680833FB6002E03A
:103D8000FB685B68FB60FB685B681B68BA689A420B
:103D9000F6D2FB685A683B685A603B685B683A68D1
:103DA0009A603B68FA689A60FB683A685A603B68B8
:103DB0007A681A617B681B685A1C7B681A6000BFAE
:103DC0001437BD4680BC704780B485B000AF7860C2
:103DD0007B681B69FB607B685B687A6892689A60A5
:103DE0007B689B687A6852685A60FB685B687A688F
:103DF0009A4203D17B689A68FB685A607B6800220C
:103E00001A61FB681B685A1EFB681A60FB681B6816
:103E100018461437BD4680BC7047000080B584B09A
:103E200000AF786039607B68FB60FB68002B0BD1CA
:103E30004FF0500383F31188BFF36F8FBFF34F8FA1
:103E4000BB6000BF00BFFDE702F028FDFB681A68F9
:103E5000FB68DB6BF968096C01FB03F31A44FB6830
:103E60009A60FB6800229A63FB681A68FB685A60D4
:103E7000FB681A68FB68DB6B013BF968096C01FBA6
:103E800003F31A44FB68DA60FB68FF2283F84420DE
:103E9000FB68FF2283F845203B68002B14D1FB68A8
:103EA0001B69002B1AD0FB681033184601F000FD87
:103EB0000346002B12D00D4B4FF080521A60BFF317
:103EC0004F8FBFF36F8F09E0FB6810331846FFF781
:103ED000F5FEFB6824331846FFF7F0FE02F00EFDF6
:103EE000012318461037BD4680BD00BF04ED00E039
:103EF00080B58EB002AFF860B9607A603B60FB6855
:103F0000002B0BD14FF0500383F31188BFF36F8F59
:103F1000BFF34F8FBB6200BF00BFFDE73B68002BC4
:103F20000BD14FF0500383F31188BFF36F8FBFF3B2
:103F30004F8F7B6200BF00BFFDE77B68002B02D084
:103F4000BB68002B01D0012300E00023002B0BD124
:103F50004FF0500383F31188BFF36F8FBFF34F8F80
:103F60003B6200BF00BFFDE77B68002B02D1BB684E
:103F7000002B01D1012300E00023002B0BD14FF0D7
:103F8000500383F31188BFF36F8FBFF34F8FFB6133
:103F900000BF00BFFDE750237B617B69502B0BD036
:103FA0004FF0500383F31188BFF36F8FBFF34F8F30
:103FB000BB6100BF00BFFDE77B693B68FB62FB6A3A
:103FC000002B0DD0FB6A012283F8462097F8382099
:103FD000FB6A009313467A68B968F86800F040F805
:103FE000FB6A18463037BD4680BD80B58AB002AF47
:103FF000F860B9601346FB71FB68002B0BD14FF0E2
:10400000500383F31188BFF36F8FBFF34F8F3B6172
:1040100000BF00BFFDE7FB68BA6802FB03F3FB616A
:10402000FB695033184602F03BFDB861BB69002BB9
:1040300011D0BB697B617B6950337B61BB69002216
:1040400083F84620FA79BB69009313467A69B96808
:10405000F86800F005F8BB6918462037BD4680BDFA
:1040600080B584B000AFF860B9607A60FB70BB685F
:10407000002B03D1BB69BA691A6002E0BB697A6898
:104080001A60BB69FA68DA63BB69BA681A6401210D
:10409000B869FFF7C3FEBB69FA7883F84C2000BF0C
:1040A0001037BD4680BD80B582B000AF78607B68B8
:1040B000002B0ED07B6800229A607B6800221A6079
:1040C0007B680022DA60002300220021786800F07B
:1040D00011F900BF0837BD4680BD80B586B000AF7E
:1040E0000346FB7101237B6100233B61FB791A4688
:1040F00039697869FFF779FFF860F868FFF7D3FF4F
:10410000FB6818461837BD4680BD80B588B002AF41
:1041100003463960FB7101237B6100233B61FB791E
:1041200000933B68002239697869FFF7E1FEF86087
:10413000F868FFF7B8FFFB6818461837BD4680BD22
:1041400090B587B000AF78607B683B613B69002B1E
:104150000BD14FF0500383F31188BFF36F8FBFF380
:104160004F8FFB6000BF00BFFDE73B699C6801F01B
:104170005FFD03469C4211D13B69DB685A1E3B69D7
:10418000DA603B69DB68002B05D1002300220021A7
:10419000386900F0AFF801237B6101E000237B6107
:1041A0007B6918461C37BD4690BD90B587B000AFFF
:1041B000786039607B683B613B69002B0BD14FF025
:1041C000500383F31188BFF36F8FBFF34F8FFB60F2
:1041D00000BF00BFFDE73B699C6801F029FD034675
:1041E0009C4207D13B69DB685A1C3B69DA600123BA
:1041F0007B610CE03968386900F08EFB78617B697F
:10420000002B04D03B69DB685A1C3B69DA607B6990
:1042100018461C37BD4690BD80B58AB002AFF86025
:10422000B9607A60FB68002B0BD14FF0500383F329
:104230001188BFF36F8FBFF34F8FBB6100BF00BF0B
:10424000FDE7BA68FB689A420BD94FF0500383F33D
:104250001188BFF36F8FBFF34F8F7B6100BF00BF2B
:10426000FDE7022300937B6800220021F868FFF736
:104270003FFEF861FB69002B02D0FB69BA689A63C4
:10428000FB6918462037BD4680BD80B586B000AFBB
:10429000786039607B68002B0BD14FF0500383F3BB
:1042A0001188BFF36F8FBFF34F8F3B6100BF00BF1B
:1042B000FDE73A687B689A420BD94FF0500383F3CD
:1042C0001188BFF36F8FBFF34F8FFB6000BF00BF3C
:1042D000FDE7022200217868FFF787FE78617B699D
:1042E000002B02D07B693A689A637B6918461837BD
:1042F000BD4680BD80B58EB000AFF860B9607A6011
:104300003B6000237B63FB683B633B6B002B0BD163
:104310004FF0500383F31188BFF36F8FBFF34F8FBC
:10432000BB6200BF00BFFDE7BB68002B03D13B6B46
:104330001B6C002B01D1012300E00023002B0BD1CB
:104340004FF0500383F31188BFF36F8FBFF34F8F8C
:104350007B6200BF00BFFDE73B68022B03D13B6BD4
:10436000DB6B012B01D1012300E00023002B0BD1DB
:104370004FF0500383F31188BFF36F8FBFF34F8F5C
:104380003B6200BF00BFFDE701F060FC0346002B6D
:1043900002D17B68002B01D1012300E00023002B18
:1043A0000BD14FF0500383F31188BFF36F8FBFF32E
:1043B0004F8FFB6100BF00BFFDE702F06FFA3B6B60
:1043C0009A6B3B6BDB6B9A4202D33B68022B29D181
:1043D0003A68B968386B00F06CFCF8623B6B5B6A5A
:1043E000002B10D03B6B2433184601F061FA0346D2
:1043F000002B13D03F4B4FF080521A60BFF34F8F0A
:10440000BFF36F8F0AE0FB6A002B07D0394B4FF0E8
:1044100080521A60BFF34F8FBFF36F8F02F06EFAB6
:10442000012363E07B68002B03D102F067FA0023CD
:104430005CE07B6B002B06D107F11403184601F0FA
:104440009BFA01237B6302F059FA01F00DF802F0A8
:1044500025FA3B6B93F844305BB2B3F1FF3F03D1D5
:104460003B6B002283F844203B6B93F845305BB2F2
:10447000B3F1FF3F03D13B6B002283F8452002F0EC
:104480003DFA3A1D07F114031146184601F08AFA65
:104490000346002B24D1386B00F003FD0346002BAC
:1044A00018D03B6B10337A681146184601F0AEF90C
:1044B000386B00F08EFC00F0E5FF0346002B7FF424
:1044C0007CAF0C4B4FF080521A60BFF34F8FBFF39D
:1044D0006F8F72E7386B00F07CFC00F0D3FF6CE765
:1044E000386B00F076FC00F0CDFF0023184638371B
:1044F000BD4680BD04ED00E080B590B000AFF8602F
:10450000B9607A603B60FB68BB63BB6B002B0BD16F
:104510004FF0500383F31188BFF36F8FBFF34F8FBA
:10452000BB6200BF00BFFDE7BB68002B03D1BB6BC4
:104530001B6C002B01D1012300E00023002B0BD1C9
:104540004FF0500383F31188BFF36F8FBFF34F8F8A
:104550007B6200BF00BFFDE73B68022B03D1BB6B52
:10456000DB6B012B01D1012300E00023002B0BD1D9
:104570004FF0500383F31188BFF36F8FBFF34F8F5A
:104580003B6200BF00BFFDE702F04AFAEFF3118281
:104590004FF0500383F31188BFF36F8FBFF34F8F3A
:1045A000FA61BB61FB697B63BB6B9A6BBB6BDB6BBB
:1045B0009A4202D33B68022B2FD1BB6B93F8453054
:1045C00087F83330BB6B9B6BFB623A68B968B86B9A
:1045D00000F06FFB97F93330B3F1FF3F12D1BB6BA3
:1045E0005B6A002B16D0BB6B2433184601F060F9D0
:1045F0000346002B0ED07B68002B0BD07B6801227A
:104600001A6007E097F833300133DBB25AB2BB6B64
:1046100083F845200123FB6301E00023FB637B6BF0
:104620007B617B6983F3118800BFFB6B18464037C1
:10463000BD4680BD80B58EB000AF786039607B68C4
:104640003B633B6B002B0BD14FF0500383F311887E
:10465000BFF36F8FBFF34F8F3B6200BF00BFFDE71B
:104660003B6B1B6C002B0BD04FF0500383F3118876
:10467000BFF36F8FBFF34F8FFB6100BF00BFFDE73C
:104680003B6B1B68002B03D13B6B9B68002B01D15C
:10469000012300E00023002B0BD14FF0500383F3E4
:1046A0001188BFF36F8FBFF34F8FBB6100BF00BF97
:1046B000FDE702F0B5F9EFF311824FF0500383F3F9
:1046C0001188BFF36F8FBFF34F8F7A613B617B69B6
:1046D000FB623B6B9B6BBB623B6BDB6BBA6A9A42C8
:1046E0002BD23B6B93F8453087F82730BB6A5A1CB6
:1046F0003B6B9A6397F92730B3F1FF3F12D13B6BC5
:104700005B6A002B16D03B6B2433184601F0D0F8BF
:104710000346002B0ED03B68002B0BD03B680122D8
:104720001A6007E097F827300133DBB25AB23B6BCF
:1047300083F8452001237B6301E000237B63FB6A50
:10474000FB60FB6883F3118800BF7B6B184638372A
:10475000BD4680BD80B58CB000AFF860B9607A60AE
:104760000023FB62FB68BB62BB6A002B0BD14FF0DE
:10477000500383F31188BFF36F8FBFF34F8F3B62FA
:1047800000BF00BFFDE7BB68002B03D1BB6A1B6CF9
:10479000002B01D1012300E00023002B0BD14FF0AF
:1047A000500383F31188BFF36F8FBFF34F8FFB610B
:1047B00000BF00BFFDE701F049FA0346002B02D11C
:1047C0007B68002B01D1012300E00023002B0BD1DB
:1047D0004FF0500383F31188BFF36F8FBFF34F8FF8
:1047E000BB6100BF00BFFDE702F058F8BB6A9B6BDE
:1047F0007B627B6A002B1FD0B968B86A00F0C3FAED
:104800007B6A5A1EBB6A9A63BB6A1B69002B0FD076
:10481000BB6A1033184601F04BF80346002B07D053
:104820003C4B4FF080521A60BFF34F8FBFF36F8F36
:1048300002F064F8012369E07B68002B03D102F0E9
:104840005DF8002362E0FB6A002B06D107F110033C
:10485000184601F091F80123FB6202F04FF800F0D6
:1048600003FE02F01BF8BB6A93F844305BB2B3F16D
:10487000FF3F03D1BB6A002283F84420BB6A93F850
:1048800045305BB2B3F1FF3F03D1BB6A002283F82E
:10489000452002F033F83A1D07F11003114618467F
:1048A00001F080F80346002B23D1B86A00F0E3FA48
:1048B0000346002B17D0BB6A24337A68114618468A
:1048C00000F0A4FFB86A00F084FA00F0DBFD0346B4
:1048D000002B89D10F4B4FF080521A60BFF34F8FDE
:1048E000BFF36F8F80E7B86A00F073FA00F0CAFD7B
:1048F0007AE7B86A00F06DFA00F0C4FDB86A00F01B
:10490000BAFA0346002B3FF46FAF00231846303746
:10491000BD4680BD04ED00E080B58EB000AF78608C
:10492000396000237B637B68FB6200233B63FB6A87
:10493000002B0BD14FF0500383F31188BFF36F8F1F
:10494000BFF34F8F3B6200BF00BFFDE7FB6A1B6CEC
:10495000002B0BD04FF0500383F31188BFF36F8F00
:10496000BFF34F8FFB6100BF00BFFDE701F06EF9A1
:104970000346002B02D13B68002B01D1012300E04C
:104980000023002B0BD14FF0500383F31188BFF3AA
:104990006F8FBFF34F8FBB6100BF00BFFDE701F01A
:1049A0007DFFFB6A9B6BBB62BB6A002B24D0BB6A9A
:1049B0005A1EFB6A9A63FB6A1B68002B04D101F044
:1049C000BFFA0246FB6A9A60FB6A1B69002B0FD094
:1049D000FB6A1033184600F06BFF0346002B07D02C
:1049E000544B4FF080521A60BFF34F8FBFF36F8F5D
:1049F00001F084FF012398E03B68002B12D13B6B50
:104A0000002B0BD04FF0500383F31188BFF36F8F4F
:104A1000BFF34F8F7B6100BF00BFFDE701F06EFF6A
:104A2000002382E07B6B002B06D107F10C031846B4
:104A300000F0A2FF01237B6301F060FF00F014FD92
:104A400001F02CFFFB6A93F844305BB2B3F1FF3FF7
:104A500003D1FB6A002283F84420FB6A93F84530B7
:104A60005BB2B3F1FF3F03D1FB6A002283F845201C
:104A700001F044FF3A4607F10C031146184600F0D6
:104A800091FF0346002B32D1F86A00F0F4F9034697
:104A9000002B26D0FB6A1B68002B09D101F0FEFE1B
:104AA000FB6A9B68184601F0EFF8386301F026FFB7
:104AB000FB6A24333A681146184600F0A7FEF86AEC
:104AC00000F087F900F0DEFC0346002B7FF467AFAF
:104AD000184B4FF080521A60BFF34F8FBFF36F8FA8
:104AE0005DE7F86A00F075F900F0CCFC57E7F86A6A
:104AF00000F06FF900F0C6FCF86A00F0BCF903465C
:104B0000002B3FF44CAF3B6B002B0DD001F0C6FEE9
:104B1000F86A00F0B7F87862FB6A9B68796A184611
:104B200001F08AF901F0EAFE002318463837BD4645
:104B300080BD00BF04ED00E080B58EB000AFF8602E
:104B4000B9607A60FB683B633B6B002B0BD14FF085
:104B5000500383F31188BFF36F8FBFF34F8F3B6216
:104B600000BF00BFFDE7BB68002B03D13B6B1B6C94
:104B7000002B01D1012300E00023002B0BD14FF0CB
:104B8000500383F31188BFF36F8FBFF34F8FFB6127
:104B900000BF00BFFDE701F043FFEFF311824FF0CC
:104BA000500383F31188BFF36F8FBFF34F8FBA6148
:104BB0007B61BB69FB623B6B9B6BBB62BB6A002B7F
:104BC0002FD03B6B93F8443087F82730B968386BA7
:104BD00000F0D9F8BB6A5A1E3B6B9A6397F92730ED
:104BE000B3F1FF3F12D13B6B1B69002B16D03B6B1F
:104BF0001033184600F05CFE0346002B0ED07B6895
:104C0000002B0BD07B6801221A6007E097F8273051
:104C10000133DBB25AB23B6B83F8442001237B6340
:104C200001E000237B63FB6A3B613B6983F31188EE
:104C300000BF7B6B18463837BD4680BD80B584B059
:104C400000AF78607B68FB60FB68002B0BD14FF0F6
:104C5000500383F31188BFF36F8FBFF34F8FBB6097
:104C600000BF00BFFDE7F86800F05CF9FB6893F84F
:104C70004630002B02D1F86801F0E0FF00BF10378A
:104C8000BD4680BD80B485B000AF78607B685B6A4C
:104C9000002B06D07B681B6B1B68C3F13803FB60DD
:104CA00001E00023FB60FB6818461437BD4680BC5A
:104CB000704780B586B000AFF860B9607A600023B5
:104CC0007B61FB689B6B3B61FB681B6C002B0DD110
:104CD000FB681B68002B4DD1FB689B68184601F0F0
:104CE0003BF87861FB6800229A6043E07B68002B08
:104CF00019D1FB685868FB681B6C1A46B96802F04A
:104D000059F9FB685A68FB681B6C1A44FB685A60C7
:104D1000FB685A68FB689B689A422BD3FB681A6849
:104D2000FB685A6026E0FB68D868FB681B6C1A4673
:104D3000B96802F03FF9FB68DA68FB681B6C5B42FC
:104D40001A44FB68DA60FB68DA68FB681B689A4201
:104D500007D2FB689A68FB681B6C5B421A44FB68CD
:104D6000DA607B68022B05D13B69002B02D03B69DE
:104D7000013B3B613B695A1CFB689A637B6918469F
:104D80001837BD4680BD80B582B000AF786039600D
:104D90007B681B6C002B18D07B68DA687B681B6C07
:104DA0001A447B68DA607B68DA687B689B689A42A1
:104DB00003D37B681A687B68DA607B68D9687B6894
:104DC0001B6C1A46386802F0F5F800BF0837BD467C
:104DD00080BD80B584B000AF786001F05FFD7B6876
:104DE00093F84530FB7311E07B685B6A002B12D0AF
:104DF0007B682433184600F05BFD0346002B01D08E
:104E000000F034FEFB7B013BDBB2FB7397F90F3004
:104E1000002BE9DC00E000BF7B68FF2283F845201F
:104E200001F06CFD01F03AFD7B6893F84430BB73F0
:104E300011E07B681B69002B12D07B681033184689
:104E400000F036FD0346002B01D000F00FFEBB7BC7
:104E5000013BDBB2BB7397F90E30002BE9DC00E0BD
:104E600000BF7B68FF2283F8442001F047FD00BFAC
:104E70001037BD4680BD80B584B000AF786001F0CA
:104E80000DFD7B689B6B002B02D10123FB6001E0D1
:104E90000023FB6001F032FDFB6818461037BD4669
:104EA00080BD80B584B000AF786001F0F7FC7B680E
:104EB0009A6B7B68DB6B9A4202D10123FB6001E0B5
:104EC0000023FB6001F01AFDFB6818461037BD4651
:104ED00080BD000080B485B000AF786039600023E9
:104EE000FB6014E00E4AFB6852F83330002B0BD104
:104EF0000B49FB683A6841F83320094AFB68DB003C
:104F000013447A685A6006E0FB680133FB60FB6873
:104F1000072BE7D900BF00BF1437BD4680BC7047E0
:104F2000001E002080B485B000AF78600023FB60D5
:104F300016E0104AFB68DB0013445B687A689A420B
:104F40000BD10C4AFB68002142F83310094AFB6878
:104F5000DB00134400225A6006E0FB680133FB606B
:104F6000FB68072BE5D900BF00BF1437BD4680BCE6
:104F7000704700BF001E002080B586B000AFF8600B
:104F8000B9607A60FB687B6101F088FC7B6993F80B
:104F900044305BB2B3F1FF3F03D17B69002283F859
:104FA00044207B6993F845305BB2B3F1FF3F03D1F6
:104FB0007B69002283F8452001F0A0FC7B699B6B94
:104FC000002B06D17B6924337A68B968184600F053
:104FD00043FC7869FFF7FDFE00BF1837BD4680BD72
:104FE00080B58EB004AFF860B9607A603B607B6BCF
:104FF000002B0BD14FF0500383F31188BFF36F8F59
:10500000BFF34F8F3B6200BF00BFFDE7BB6B002BC0
:105010000BD14FF0500383F31188BFF36F8FBFF3B1
:105020004F8FFB6100BF00BFFDE75C233B613B6925
:105030005C2B0BD04FF0500383F31188BFF36F8FBD
:10504000BFF34F8FBB6100BF00BFFDE73B69BB6B88
:10505000002B1ED07B6B002B1BD0BB6B7B627B6A53
:105060007A6B1A637B6A022283F859200023039328
:105070007B6A029307F1140301933B6B00933B6837
:105080007A68B968F86800F050F8786A00F0DEF8DD
:1050900001E000237B617B6918462837BD4680BD4F
:1050A00080B58CB004AFF860B9603B601346FB80FC
:1050B000FB889B00184601F0F3FC78617B69002BAC
:1050C0000ED05C2001F0ECFCF861FB69002B03D0F2
:1050D000FB697A691A6305E0786901F0AFFD01E0C8
:1050E0000023FB61FB69002B17D0FB69002283F8CA
:1050F0005920FA8800230393FB690293FB6A01930A
:10510000BB6A00933B68B968F86800F00EF8F8696C
:1051100000F09CF80123BB6102E04FF0FF33BB615C
:10512000BB6918462037BD4680BD80B588B000AF4A
:10513000F860B9607A603B603B6B186B7B689B00E2
:105140001A46A52101F002FF3B6B1A6B7B6803F145
:105150008043013B9B001344BB61BB6923F0070301
:10516000BB61BB6903F00703002B0BD04FF050036A
:1051700083F31188BFF36F8FBFF34F8F7B6100BF45
:1051800000BFFDE7BB68002B1FD00023FB6112E0CE
:10519000BA68FB69134419783A6BFB6913443433DA
:1051A0000A461A70BA68FB6913441B78002B06D0B4
:1051B000FB690133FB61FB690F2BE9D900E000BFFC
:1051C0003B6B002283F8432003E03B6B002283F813
:1051D0003420BB6A372B01D93723BB623B6BBA6AD9
:1051E000DA623B6BBA6ADA643B6B00221A653B6B8E
:1051F00004331846FEF781FD3B6B18331846FEF763
:105200007CFD3B6B3A6B1A61BB6AC3F138023B6BA6
:105210009A613B6B3A6B5A623B6B00225A653B6B5F
:10522000002283F858203A68F968B86901F048FA12
:1052300002463B6B1A60FB6A002B02D0FB6A3A6B9A
:105240001A6000BF2037BD4680BD000080B582B027
:1052500000AF786001F022FB2D4B1B6801332C4A14
:1052600013602C4B1B68002B09D12A4A7B68136002
:10527000274B1B68012B10D100F01CFC0DE0264BC6
:105280001B68002B09D1234B1B68DA6A7B68DB6A39
:105290009A4202D81F4A7B681360204B1B68013377
:1052A0001E4A13601D4B1A687B685A647B68DA6A71
:1052B0001B4B1B689A4203D97B68DB6A184A136050
:1052C0007B68DA6A13469B0013449B00154A1A4414
:1052D0007B68043319461046FEF71BFD01F00EFBF8
:1052E0000D4B1B68002B0ED00A4B1B68DA6A7B68DB
:1052F000DB6A9A4207D20C4B4FF080521A60BFF320
:105300004F8FBFF36F8F00BF0837BD4680BD00BF12
:1053100014230020401E00202023002030230020E2
:105320001C230020441E002004ED00E080B584B062
:1053300000AF78600023FB607B68002B18D0144B13
:105340001B68002B0BD04FF0500383F31188BFF381
:105350006F8FBFF34F8FBB6000BF00BFFDE700F052
:1053600083F80021786800F0FFFD00F08BF8F8600A
:10537000FB68002B07D1074B4FF080521A60BFF338
:105380004F8FBFF36F8F00BF1037BD4680BD00BF8A
:105390003C23002004ED00E080B58AB004AF002378
:1053A000BB6000237B603A46391D07F108031846AD
:1053B000FEF752FC39687B68BA68029201930023B9
:1053C000009300230A4622492248FFF709FE0346BC
:1053D000214A1360204B1B68002B02D001237B6104
:1053E00001E000237B617B69012B02D100F010FEFC
:1053F00078617B69012B16D14FF0500383F311883C
:10540000BFF36F8FBFF34F8F3B6100BF134B4FF064
:10541000FF321A60124B01221A60124B00221A60EE
:1054200001F0CAF90FE07B69B3F1FF3F0BD14FF0F8
:10543000500383F31188BFF36F8FBFF34F8FFB606F
:1054400000BF00BFFDE700BF1837BD4680BD00BFED
:10545000E8810008855A0008382300203423002002
:10546000202300201823002080B400AF044B1B68C9
:105470000133034A136000BFBD4680BC704700BFC4
:105480003C23002080B584B000AF0023FB600023E4
:10549000BB60424B1B68002B0BD14FF0500383F3D2
:1054A0001188BFF36F8FBFF34F8F3B6000BF00BF0A
:1054B000FDE701F0F3F9394B1B68013B374A1360F4
:1054C000364B1B68002B62D1354B1B68002B5ED01E
:1054D0002FE0344BDB68DB68FB60FB681833184651
:1054E000FEF772FCFB6804331846FEF76DFCFB68A0
:1054F000DA6A2D4B1B689A4203D9FB68DB6A2A4A99
:105500001360FB68DA6A13469B0013449B00274A2A
:105510001A44FB68043319461046FEF7FAFBFB6891
:10552000DA6A234B1B68DB6A9A4202D3214B0122C1
:105530001A601C4B1B68002BCBD1FB68002B01D0E1
:1055400000F056FB1C4B1B687B607B68002B10D067
:1055500000F044F80346002B02D0164B01221A60DB
:105560007B68013B7B607B68002BF1D1124B0022F2
:105570001A60104B1B68002B09D00123BB600F4B36
:105580004FF080521A60BFF34F8FBFF36F8F01F05F
:10559000B5F9BB6818461037BD4680BD3C230020D6
:1055A00014230020D42200201C230020441E0020AD
:1055B000401E0020282300202423002004ED00E0CA
:1055C00080B483B000AF044B1B687B607B681846D7
:1055D0000C37BD4680BC70471823002080B586B0CC
:1055E00000AF00237B614F4B1B68002B40F0908085
:1055F0004D4B1B6801333B614B4A3B6913603B6970
:10560000002B21D1494B1B681B68002B0BD04FF09E
:10561000500383F31188BFF36F8FBFF34F8F3B604D
:1056200000BF00BFFDE7414B1B68FB60404B1B68A0
:105630003E4A13603E4AFB6813603E4B1B680133D1
:105640003C4A136000F0D4FA3B4B1B683A699A421B
:1056500049D3364B1B681B68002B04D1364B4FF0E7
:10566000FF321A603FE0314B1B68DB68DB68BB60D0
:10567000BB685B687B603A697B689A4203D22E4ABA
:105680007B6813602FE0BB6804331846FEF79CFB71
:10569000BB689B6A002B04D0BB6818331846FEF722
:1056A00093FBBB68DA6A254B1B689A4203D9BB6837
:1056B000DB6A224A1360BB68DA6A13469B00134414
:1056C0009B001F4A1A44BB68043319461046FEF774
:1056D00020FBBB68DA6A1B4B1B68DB6A9A42B8D3B3
:1056E00001237B61B5E7174B1B68DA6A144913463F
:1056F0009B0013449B000B441B68012B01D9012321
:105700007B61114B1B68002B07D001237B6104E0F8
:105710000E4B1B6801330D4A13607B69184618371E
:10572000BD4680BD3C23002018230020CC22002051
:10573000D02200202C230020342300201C23002012
:10574000441E0020401E0020282300202423002087
:1057500080B485B000AF284B1B68002B03D0274BCB
:1057600001221A6042E0254B00221A60244B1B687C
:10577000FB6011E0FB68002B0BD14FF0500383F36B
:105780001188BFF36F8FBFF34F8F7B6000BF00BFE7
:10579000FDE7FB68013BFB601A49FA6813469B0072
:1057A00013449B000B441B68002BE3D0FA6813469C
:1057B0009B0013449B00134A1344BB60BB685B68A7
:1057C0005A68BB685A60BB685A68BB6808339A421B
:1057D00004D1BB685B685A68BB685A60BB685B6889
:1057E000DB68094A1360064AFB68136000BF143780
:1057F000BD4680BC704700BF3C230020282300200A
:105800001C230020441E0020401E002080B584B0D0
:1058100000AF786039607B68002B0BD14FF05003EC
:1058200083F31188BFF36F8FBFF34F8FFB6000BF0F
:1058300000BFFDE7074B1B68183319467868FEF771
:105840008BFA0121386800F08FFB00BF1037BD468E
:1058500080BD00BF401E002080B586B000AFF8605C
:10586000B9607A60FB68002B0BD14FF0500383F3D3
:105870001188BFF36F8FBFF34F8F7B6100BF00BFF5
:10588000FDE70A4B1B6818331946F868FEF741FA22
:105890007B68002B02D04FF0FF33BB607968B8689B
:1058A00000F062FB00BF1837BD4680BD401E0020DF
:1058B00080B586B000AF78607B68DB68DB683B61F1
:1058C0003B69002B0BD14FF0500383F31188BFF3DA
:1058D0006F8FBFF34F8FFB6000BF00BFFDE73B69D9
:1058E00018331846FEF770FA1D4B1B68002B1DD1AC
:1058F0003B6904331846FEF767FA3B69DA6A194BCD
:105900001B689A4203D93B69DB6A164A13603B69FC
:10591000DA6A13469B0013449B00134A1A443B69FE
:10592000043319461046FEF7F4F905E03B691833D5
:1059300019460E48FEF7EDF93B69DA6A0C4B1B6815
:10594000DB6A9A4205D901237B610A4B01221A6066
:1059500001E000237B617B6918461837BD4680BD96
:105960003C2300201C230020441E0020D4220020C1
:10597000401E00202823002080B483B000AF786050
:10598000064B1A687B681A60054B1A687B685A6078
:1059900000BF0C37BD4680BC704700BF2C230020E1
:1059A0001823002080B588B000AF786039607B682C
:1059B000002B0BD14FF0500383F31188BFF36F8F8F
:1059C000BFF34F8F3B6100BF00BFFDE73B68002B7B
:1059D0000BD14FF0500383F31188BFF36F8FBFF3E8
:1059E0004F8FFB6000BF00BFFDE700F057FF1D4B6E
:1059F0001B68BB617B685B68BA69D31A7B613B68D3
:105A00001B68B3F1FF3F02D10023FB6123E07B68F9
:105A10001A68154B1B689A4207D07B685B68BA69A5
:105A20009A4202D30123FB6115E03B681B687A6947
:105A30009A420BD23B681A687B69D21A3B681A609B
:105A40007868FFF799FF0023FB6104E03B680022C0
:105A50001A600123FB6100F051FFFB6918462037F3
:105A6000BD4680BD182300202C23002080B400AF49
:105A7000034B01221A6000BFBD4680BC704700BFC7
:105A80002823002080B582B000AF786000F052F883
:105A9000064B1B68012BF9D9054B4FF080521A6059
:105AA000BFF34F8FBFF36F8FF0E700BF441E00209E
:105AB00004ED00E080B582B000AF00237B600CE015
:105AC0007A6813469B0013449B00124A13441846FD
:105AD000FEF7F4F87B6801337B607B68372BEFD9E6
